{
  "contractName": "SolnSquareVerifier",
  "abi": [
    {
      "inputs": [
        {
          "internalType": "address",
          "name": "_verifierContract",
          "type": "address"
        }
      ],
      "payable": false,
      "stateMutability": "nonpayable",
      "type": "constructor"
    },
    {
      "anonymous": false,
      "inputs": [
        {
          "indexed": true,
          "internalType": "address",
          "name": "owner",
          "type": "address"
        },
        {
          "indexed": true,
          "internalType": "address",
          "name": "approved",
          "type": "address"
        },
        {
          "indexed": true,
          "internalType": "uint256",
          "name": "tokenId",
          "type": "uint256"
        }
      ],
      "name": "Approval",
      "type": "event"
    },
    {
      "anonymous": false,
      "inputs": [
        {
          "indexed": true,
          "internalType": "address",
          "name": "owner",
          "type": "address"
        },
        {
          "indexed": true,
          "internalType": "address",
          "name": "operator",
          "type": "address"
        },
        {
          "indexed": false,
          "internalType": "bool",
          "name": "approved",
          "type": "bool"
        }
      ],
      "name": "ApprovalForAll",
      "type": "event"
    },
    {
      "anonymous": false,
      "inputs": [
        {
          "indexed": false,
          "internalType": "address",
          "name": "account",
          "type": "address"
        }
      ],
      "name": "Paused",
      "type": "event"
    },
    {
      "anonymous": false,
      "inputs": [
        {
          "indexed": true,
          "internalType": "address",
          "name": "from",
          "type": "address"
        },
        {
          "indexed": true,
          "internalType": "address",
          "name": "to",
          "type": "address"
        },
        {
          "indexed": true,
          "internalType": "uint256",
          "name": "tokenId",
          "type": "uint256"
        }
      ],
      "name": "Transfer",
      "type": "event"
    },
    {
      "anonymous": false,
      "inputs": [
        {
          "indexed": false,
          "internalType": "address",
          "name": "account",
          "type": "address"
        }
      ],
      "name": "Unpaused",
      "type": "event"
    },
    {
      "anonymous": false,
      "inputs": [
        {
          "indexed": false,
          "internalType": "address",
          "name": "solAddress",
          "type": "address"
        }
      ],
      "name": "solutionAdded",
      "type": "event"
    },
    {
      "anonymous": false,
      "inputs": [
        {
          "indexed": true,
          "internalType": "address",
          "name": "previousOwner",
          "type": "address"
        },
        {
          "indexed": true,
          "internalType": "address",
          "name": "newOwner",
          "type": "address"
        }
      ],
      "name": "transferredOwnership",
      "type": "event"
    },
    {
      "constant": false,
      "inputs": [
        {
          "internalType": "bytes32",
          "name": "_myid",
          "type": "bytes32"
        },
        {
          "internalType": "string",
          "name": "_result",
          "type": "string"
        }
      ],
      "name": "__callback",
      "outputs": [],
      "payable": false,
      "stateMutability": "nonpayable",
      "type": "function"
    },
    {
      "constant": false,
      "inputs": [
        {
          "internalType": "bytes32",
          "name": "_myid",
          "type": "bytes32"
        },
        {
          "internalType": "string",
          "name": "_result",
          "type": "string"
        },
        {
          "internalType": "bytes",
          "name": "_proof",
          "type": "bytes"
        }
      ],
      "name": "__callback",
      "outputs": [],
      "payable": false,
      "stateMutability": "nonpayable",
      "type": "function"
    },
    {
      "constant": false,
      "inputs": [
        {
          "internalType": "address",
          "name": "to",
          "type": "address"
        },
        {
          "internalType": "uint256",
          "name": "tokenId",
          "type": "uint256"
        }
      ],
      "name": "approve",
      "outputs": [],
      "payable": false,
      "stateMutability": "nonpayable",
      "type": "function"
    },
    {
      "constant": true,
      "inputs": [
        {
          "internalType": "address",
          "name": "owner",
          "type": "address"
        }
      ],
      "name": "balanceOf",
      "outputs": [
        {
          "internalType": "uint256",
          "name": "",
          "type": "uint256"
        }
      ],
      "payable": false,
      "stateMutability": "view",
      "type": "function"
    },
    {
      "constant": true,
      "inputs": [],
      "name": "baseTokenURI",
      "outputs": [
        {
          "internalType": "string",
          "name": "",
          "type": "string"
        }
      ],
      "payable": false,
      "stateMutability": "view",
      "type": "function"
    },
    {
      "constant": true,
      "inputs": [
        {
          "internalType": "uint256",
          "name": "tokenId",
          "type": "uint256"
        }
      ],
      "name": "getApproved",
      "outputs": [
        {
          "internalType": "address",
          "name": "",
          "type": "address"
        }
      ],
      "payable": false,
      "stateMutability": "view",
      "type": "function"
    },
    {
      "constant": true,
      "inputs": [
        {
          "internalType": "address",
          "name": "owner",
          "type": "address"
        },
        {
          "internalType": "address",
          "name": "operator",
          "type": "address"
        }
      ],
      "name": "isApprovedForAll",
      "outputs": [
        {
          "internalType": "bool",
          "name": "",
          "type": "bool"
        }
      ],
      "payable": false,
      "stateMutability": "view",
      "type": "function"
    },
    {
      "constant": true,
      "inputs": [],
      "name": "isOwner",
      "outputs": [
        {
          "internalType": "bool",
          "name": "",
          "type": "bool"
        }
      ],
      "payable": false,
      "stateMutability": "view",
      "type": "function"
    },
    {
      "constant": false,
      "inputs": [
        {
          "internalType": "address",
          "name": "to",
          "type": "address"
        },
        {
          "internalType": "uint256",
          "name": "tokenId",
          "type": "uint256"
        }
      ],
      "name": "mint",
      "outputs": [
        {
          "internalType": "bool",
          "name": "",
          "type": "bool"
        }
      ],
      "payable": false,
      "stateMutability": "nonpayable",
      "type": "function"
    },
    {
      "constant": true,
      "inputs": [],
      "name": "name",
      "outputs": [
        {
          "internalType": "string",
          "name": "",
          "type": "string"
        }
      ],
      "payable": false,
      "stateMutability": "view",
      "type": "function"
    },
    {
      "constant": true,
      "inputs": [
        {
          "internalType": "uint256",
          "name": "tokenId",
          "type": "uint256"
        }
      ],
      "name": "ownerOf",
      "outputs": [
        {
          "internalType": "address",
          "name": "",
          "type": "address"
        }
      ],
      "payable": false,
      "stateMutability": "view",
      "type": "function"
    },
    {
      "constant": false,
      "inputs": [],
      "name": "pause",
      "outputs": [],
      "payable": false,
      "stateMutability": "nonpayable",
      "type": "function"
    },
    {
      "constant": false,
      "inputs": [
        {
          "internalType": "address",
          "name": "from",
          "type": "address"
        },
        {
          "internalType": "address",
          "name": "to",
          "type": "address"
        },
        {
          "internalType": "uint256",
          "name": "tokenId",
          "type": "uint256"
        }
      ],
      "name": "safeTransferFrom",
      "outputs": [],
      "payable": false,
      "stateMutability": "nonpayable",
      "type": "function"
    },
    {
      "constant": false,
      "inputs": [
        {
          "internalType": "address",
          "name": "from",
          "type": "address"
        },
        {
          "internalType": "address",
          "name": "to",
          "type": "address"
        },
        {
          "internalType": "uint256",
          "name": "tokenId",
          "type": "uint256"
        },
        {
          "internalType": "bytes",
          "name": "_data",
          "type": "bytes"
        }
      ],
      "name": "safeTransferFrom",
      "outputs": [],
      "payable": false,
      "stateMutability": "nonpayable",
      "type": "function"
    },
    {
      "constant": false,
      "inputs": [
        {
          "internalType": "address",
          "name": "to",
          "type": "address"
        },
        {
          "internalType": "bool",
          "name": "approved",
          "type": "bool"
        }
      ],
      "name": "setApprovalForAll",
      "outputs": [],
      "payable": false,
      "stateMutability": "nonpayable",
      "type": "function"
    },
    {
      "constant": true,
      "inputs": [
        {
          "internalType": "bytes4",
          "name": "interfaceId",
          "type": "bytes4"
        }
      ],
      "name": "supportsInterface",
      "outputs": [
        {
          "internalType": "bool",
          "name": "",
          "type": "bool"
        }
      ],
      "payable": false,
      "stateMutability": "view",
      "type": "function"
    },
    {
      "constant": true,
      "inputs": [],
      "name": "symbol",
      "outputs": [
        {
          "internalType": "string",
          "name": "",
          "type": "string"
        }
      ],
      "payable": false,
      "stateMutability": "view",
      "type": "function"
    },
    {
      "constant": true,
      "inputs": [
        {
          "internalType": "uint256",
          "name": "index",
          "type": "uint256"
        }
      ],
      "name": "tokenByIndex",
      "outputs": [
        {
          "internalType": "uint256",
          "name": "",
          "type": "uint256"
        }
      ],
      "payable": false,
      "stateMutability": "view",
      "type": "function"
    },
    {
      "constant": true,
      "inputs": [
        {
          "internalType": "address",
          "name": "owner",
          "type": "address"
        },
        {
          "internalType": "uint256",
          "name": "index",
          "type": "uint256"
        }
      ],
      "name": "tokenOfOwnerByIndex",
      "outputs": [
        {
          "internalType": "uint256",
          "name": "",
          "type": "uint256"
        }
      ],
      "payable": false,
      "stateMutability": "view",
      "type": "function"
    },
    {
      "constant": true,
      "inputs": [
        {
          "internalType": "uint256",
          "name": "tokenId",
          "type": "uint256"
        }
      ],
      "name": "tokenURI",
      "outputs": [
        {
          "internalType": "string",
          "name": "",
          "type": "string"
        }
      ],
      "payable": false,
      "stateMutability": "view",
      "type": "function"
    },
    {
      "constant": true,
      "inputs": [],
      "name": "totalSupply",
      "outputs": [
        {
          "internalType": "uint256",
          "name": "",
          "type": "uint256"
        }
      ],
      "payable": false,
      "stateMutability": "view",
      "type": "function"
    },
    {
      "constant": false,
      "inputs": [
        {
          "internalType": "address",
          "name": "from",
          "type": "address"
        },
        {
          "internalType": "address",
          "name": "to",
          "type": "address"
        },
        {
          "internalType": "uint256",
          "name": "tokenId",
          "type": "uint256"
        }
      ],
      "name": "transferFrom",
      "outputs": [],
      "payable": false,
      "stateMutability": "nonpayable",
      "type": "function"
    },
    {
      "constant": false,
      "inputs": [
        {
          "internalType": "address",
          "name": "newOwner",
          "type": "address"
        }
      ],
      "name": "transferOwnership",
      "outputs": [],
      "payable": false,
      "stateMutability": "nonpayable",
      "type": "function"
    },
    {
      "constant": false,
      "inputs": [],
      "name": "unpause",
      "outputs": [],
      "payable": false,
      "stateMutability": "nonpayable",
      "type": "function"
    },
    {
      "constant": false,
      "inputs": [
        {
          "internalType": "address",
          "name": "_solAddress",
          "type": "address"
        },
        {
          "internalType": "uint256",
          "name": "_index",
          "type": "uint256"
        },
        {
          "internalType": "uint256[2]",
          "name": "A",
          "type": "uint256[2]"
        },
        {
          "internalType": "uint256[2]",
          "name": "A_p",
          "type": "uint256[2]"
        },
        {
          "internalType": "uint256[2][2]",
          "name": "B",
          "type": "uint256[2][2]"
        },
        {
          "internalType": "uint256[2]",
          "name": "B_p",
          "type": "uint256[2]"
        },
        {
          "internalType": "uint256[2]",
          "name": "C",
          "type": "uint256[2]"
        },
        {
          "internalType": "uint256[2]",
          "name": "C_p",
          "type": "uint256[2]"
        },
        {
          "internalType": "uint256[2]",
          "name": "H",
          "type": "uint256[2]"
        },
        {
          "internalType": "uint256[2]",
          "name": "K",
          "type": "uint256[2]"
        },
        {
          "internalType": "uint256[2]",
          "name": "input",
          "type": "uint256[2]"
        }
      ],
      "name": "addSolution",
      "outputs": [],
      "payable": false,
      "stateMutability": "nonpayable",
      "type": "function"
    },
    {
      "constant": true,
      "inputs": [
        {
          "internalType": "bytes32",
          "name": "key",
          "type": "bytes32"
        }
      ],
      "name": "isSolutionUnique",
      "outputs": [
        {
          "internalType": "bool",
          "name": "",
          "type": "bool"
        }
      ],
      "payable": false,
      "stateMutability": "view",
      "type": "function"
    },
    {
      "constant": false,
      "inputs": [
        {
          "internalType": "address",
          "name": "_to",
          "type": "address"
        },
        {
          "internalType": "uint256",
          "name": "_tokenId",
          "type": "uint256"
        },
        {
          "internalType": "uint256[2]",
          "name": "A",
          "type": "uint256[2]"
        },
        {
          "internalType": "uint256[2]",
          "name": "A_p",
          "type": "uint256[2]"
        },
        {
          "internalType": "uint256[2][2]",
          "name": "B",
          "type": "uint256[2][2]"
        },
        {
          "internalType": "uint256[2]",
          "name": "B_p",
          "type": "uint256[2]"
        },
        {
          "internalType": "uint256[2]",
          "name": "C",
          "type": "uint256[2]"
        },
        {
          "internalType": "uint256[2]",
          "name": "C_p",
          "type": "uint256[2]"
        },
        {
          "internalType": "uint256[2]",
          "name": "H",
          "type": "uint256[2]"
        },
        {
          "internalType": "uint256[2]",
          "name": "K",
          "type": "uint256[2]"
        },
        {
          "internalType": "uint256[2]",
          "name": "input",
          "type": "uint256[2]"
        }
      ],
      "name": "mintNFT",
      "outputs": [],
      "payable": false,
      "stateMutability": "nonpayable",
      "type": "function"
    }
  ],
  "bytecode": "0x60806040526040518060400160405280600681526020017f52616e646f6d000000000000000000000000000000000000000000000000000081525060139080519060200190620000519291906200055f565b506040518060400160405280600381526020017f52616e0000000000000000000000000000000000000000000000000000000000815250601490805190602001906200009f9291906200055f565b506040518060600160405280603f815260200162003d3e603f913960159080519060200190620000d19291906200055f565b50348015620000df57600080fd5b5060405162003d7d38038062003d7d833981810160405260208110156200010557600080fd5b810190808051906020019092919050505060138054600181600116156101000203166002900480601f016020809104026020016040519081016040528092919081815260200182805460018160011615610100020316600290048015620001b05780601f106200018457610100808354040283529160200191620001b0565b820191906000526020600020905b8154815290600101906020018083116200019257829003601f168201915b505050505060148054600181600116156101000203166002900480601f0160208091040260200160405190810160405280929190818152602001828054600181600116156101000203166002900480156200024f5780601f1062000223576101008083540402835291602001916200024f565b820191906000526020600020905b8154815290600101906020018083116200023157829003601f168201915b505050505060158054600181600116156101000203166002900480601f016020809104026020016040519081016040528092919081815260200182805460018160011615610100020316600290048015620002ee5780601f10620002c257610100808354040283529160200191620002ee565b820191906000526020600020905b815481529060010190602001808311620002d057829003601f168201915b5050505050336000806101000a81548173ffffffffffffffffffffffffffffffffffffffff021916908373ffffffffffffffffffffffffffffffffffffffff1602179055506000809054906101000a900473ffffffffffffffffffffffffffffffffffffffff1673ffffffffffffffffffffffffffffffffffffffff16600073ffffffffffffffffffffffffffffffffffffffff167fa77b1597453f945cb89178ec89d7d37698b9f9b07adbbb854775e48131186d2560405160405180910390a360008060146101000a81548160ff021916908315150217905550620003e16301ffc9a760e01b620004bf60201b60201c565b620003f96380ac58cd60e01b620004bf60201b60201c565b6200041163780e9d6360e01b620004bf60201b60201c565b82600f9080519060200190620004299291906200055f565b508160109080519060200190620004429291906200055f565b5080601190805190602001906200045b9291906200055f565b5062000474635b5e139f60e01b620004bf60201b60201c565b50505080601660006101000a81548173ffffffffffffffffffffffffffffffffffffffff021916908373ffffffffffffffffffffffffffffffffffffffff160217905550506200060e565b63ffffffff60e01b817bffffffffffffffffffffffffffffffffffffffffffffffffffffffff19161415620004f357600080fd5b6001806000837bffffffffffffffffffffffffffffffffffffffffffffffffffffffff19167bffffffffffffffffffffffffffffffffffffffffffffffffffffffff1916815260200190815260200160002060006101000a81548160ff02191690831515021790555050565b828054600181600116156101000203166002900490600052602060002090601f016020900481019282601f10620005a257805160ff1916838001178555620005d3565b82800160010185558215620005d3579182015b82811115620005d2578251825591602001919060010190620005b5565b5b509050620005e29190620005e6565b5090565b6200060b91905b8082111562000607576000816000905550600101620005ed565b5090565b90565b613720806200061e6000396000f3fe608060405234801561001057600080fd5b50600436106101a95760003560e01c80634f6ccce7116100f9578063a22cb46511610097578063d547cfb711610071578063d547cfb714611092578063db1de3b714611115578063e985e9c51461115b578063f2fde38b146111d7576101a9565b8063a22cb46514610e96578063b88d4fde14610ee6578063c87b56dd14610feb576101a9565b806373f3be36116100d357806373f3be3614610b175780638456cb5914610de75780638f32d59b14610df157806395d89b4114610e13576101a9565b80634f6ccce714610a0f5780636352211e14610a5157806370a0823114610abf576101a9565b806327dc297e1161016657806338bbfa501161014057806338bbfa50146107d55780633f4ba83a1461093157806340c10f191461093b57806342842e0e146109a1576101a9565b806327dc297e146103de5780632f745c59146104a357806336d47d9514610505576101a9565b806301ffc9a7146101ae57806306fdde0314610213578063081812fc14610296578063095ea7b31461030457806318160ddd1461035257806323b872dd14610370575b600080fd5b6101f9600480360360208110156101c457600080fd5b8101908080357bffffffffffffffffffffffffffffffffffffffffffffffffffffffff1916906020019092919050505061121b565b604051808215151515815260200191505060405180910390f35b61021b611283565b6040518080602001828103825283818151815260200191508051906020019080838360005b8381101561025b578082015181840152602081019050610240565b50505050905090810190601f1680156102885780820380516001836020036101000a031916815260200191505b509250505060405180910390f35b6102c2600480360360208110156102ac57600080fd5b8101908080359060200190929190505050611325565b604051808273ffffffffffffffffffffffffffffffffffffffff1673ffffffffffffffffffffffffffffffffffffffff16815260200191505060405180910390f35b6103506004803603604081101561031a57600080fd5b81019080803573ffffffffffffffffffffffffffffffffffffffff16906020019092919080359060200190929190505050611374565b005b61035a6114b5565b6040518082815260200191505060405180910390f35b6103dc6004803603606081101561038657600080fd5b81019080803573ffffffffffffffffffffffffffffffffffffffff169060200190929190803573ffffffffffffffffffffffffffffffffffffffff169060200190929190803590602001909291905050506114c2565b005b6104a1600480360360408110156103f457600080fd5b81019080803590602001909291908035906020019064010000000081111561041b57600080fd5b82018360208201111561042d57600080fd5b8035906020019184600183028401116401000000008311171561044f57600080fd5b91908080601f016020809104026020016040519081016040528093929190818152602001838380828437600081840152601f19601f8201169050808301925050505050505091929192905050506114e5565b005b6104ef600480360360408110156104b957600080fd5b81019080803573ffffffffffffffffffffffffffffffffffffffff16906020019092919080359060200190929190505050611528565b6040518082815260200191505060405180910390f35b6107d360048036036102c081101561051c57600080fd5b81019080803573ffffffffffffffffffffffffffffffffffffffff1690602001909291908035906020019092919080604001906002806020026040519081016040528092919082600260200280828437600081840152601f19601f820116905080830192505050505050919291929080604001906002806020026040519081016040528092919082600260200280828437600081840152601f19601f82011690508083019250505050505091929192908060800190600280602002604051908101604052809291906000905b8282101561063c578382604002016002806020026040519081016040528092919082600260200280828437600081840152601f19601f820116905080830192505050505050815260200190600101906105e8565b50505050919291929080604001906002806020026040519081016040528092919082600260200280828437600081840152601f19601f820116905080830192505050505050919291929080604001906002806020026040519081016040528092919082600260200280828437600081840152601f19601f820116905080830192505050505050919291929080604001906002806020026040519081016040528092919082600260200280828437600081840152601f19601f820116905080830192505050505050919291929080604001906002806020026040519081016040528092919082600260200280828437600081840152601f19601f820116905080830192505050505050919291929080604001906002806020026040519081016040528092919082600260200280828437600081840152601f19601f820116905080830192505050505050919291929080604001906002806020026040519081016040528092919082600260200280828437600081840152601f19601f820116905080830192505050505050919291929050505061159b565b005b61092f600480360360608110156107eb57600080fd5b81019080803590602001909291908035906020019064010000000081111561081257600080fd5b82018360208201111561082457600080fd5b8035906020019184600183028401116401000000008311171561084657600080fd5b91908080601f016020809104026020016040519081016040528093929190818152602001838380828437600081840152601f19601f820116905080830192505050505050509192919290803590602001906401000000008111156108a957600080fd5b8201836020820111156108bb57600080fd5b803590602001918460018302840111640100000000831117156108dd57600080fd5b91908080601f016020809104026020016040519081016040528093929190818152602001838380828437600081840152601f19601f8201169050808301925050505050505091929192905050506118b3565b005b6109396118b8565b005b6109876004803603604081101561095157600080fd5b81019080803573ffffffffffffffffffffffffffffffffffffffff16906020019092919080359060200190929190505050611961565b604051808215151515815260200191505060405180910390f35b610a0d600480360360608110156109b757600080fd5b81019080803573ffffffffffffffffffffffffffffffffffffffff169060200190929190803573ffffffffffffffffffffffffffffffffffffffff16906020019092919080359060200190929190505050611991565b005b610a3b60048036036020811015610a2557600080fd5b81019080803590602001909291905050506119b1565b6040518082815260200191505060405180910390f35b610a7d60048036036020811015610a6757600080fd5b81019080803590602001909291905050506119e5565b604051808273ffffffffffffffffffffffffffffffffffffffff1673ffffffffffffffffffffffffffffffffffffffff16815260200191505060405180910390f35b610b0160048036036020811015610ad557600080fd5b81019080803573ffffffffffffffffffffffffffffffffffffffff169060200190929190505050611a61565b6040518082815260200191505060405180910390f35b610de560048036036102c0811015610b2e57600080fd5b81019080803573ffffffffffffffffffffffffffffffffffffffff1690602001909291908035906020019092919080604001906002806020026040519081016040528092919082600260200280828437600081840152601f19601f820116905080830192505050505050919291929080604001906002806020026040519081016040528092919082600260200280828437600081840152601f19601f82011690508083019250505050505091929192908060800190600280602002604051908101604052809291906000905b82821015610c4e578382604002016002806020026040519081016040528092919082600260200280828437600081840152601f19601f82011690508083019250505050505081526020019060010190610bfa565b50505050919291929080604001906002806020026040519081016040528092919082600260200280828437600081840152601f19601f820116905080830192505050505050919291929080604001906002806020026040519081016040528092919082600260200280828437600081840152601f19601f820116905080830192505050505050919291929080604001906002806020026040519081016040528092919082600260200280828437600081840152601f19601f820116905080830192505050505050919291929080604001906002806020026040519081016040528092919082600260200280828437600081840152601f19601f820116905080830192505050505050919291929080604001906002806020026040519081016040528092919082600260200280828437600081840152601f19601f820116905080830192505050505050919291929080604001906002806020026040519081016040528092919082600260200280828437600081840152601f19601f8201169050808301925050505050509192919290505050611aea565b005b610def611ecf565b005b610df9611f7a565b604051808215151515815260200191505060405180910390f35b610e1b611fd1565b6040518080602001828103825283818151815260200191508051906020019080838360005b83811015610e5b578082015181840152602081019050610e40565b50505050905090810190601f168015610e885780820380516001836020036101000a031916815260200191505b509250505060405180910390f35b610ee460048036036040811015610eac57600080fd5b81019080803573ffffffffffffffffffffffffffffffffffffffff169060200190929190803515159060200190929190505050612073565b005b610fe960048036036080811015610efc57600080fd5b81019080803573ffffffffffffffffffffffffffffffffffffffff169060200190929190803573ffffffffffffffffffffffffffffffffffffffff1690602001909291908035906020019092919080359060200190640100000000811115610f6357600080fd5b820183602082011115610f7557600080fd5b80359060200191846001830284011164010000000083111715610f9757600080fd5b91908080601f016020809104026020016040519081016040528093929190818152602001838380828437600081840152601f19601f8201169050808301925050505050505091929192905050506121ad565b005b6110176004803603602081101561100157600080fd5b81019080803590602001909291905050506121d3565b6040518080602001828103825283818151815260200191508051906020019080838360005b8381101561105757808201518184015260208101905061103c565b50505050905090810190601f1680156110845780820380516001836020036101000a031916815260200191505b509250505060405180910390f35b61109a61229a565b6040518080602001828103825283818151815260200191508051906020019080838360005b838110156110da5780820151818401526020810190506110bf565b50505050905090810190601f1680156111075780820380516001836020036101000a031916815260200191505b509250505060405180910390f35b6111416004803603602081101561112b57600080fd5b810190808035906020019092919050505061233c565b604051808215151515815260200191505060405180910390f35b6111bd6004803603604081101561117157600080fd5b81019080803573ffffffffffffffffffffffffffffffffffffffff169060200190929190803573ffffffffffffffffffffffffffffffffffffffff1690602001909291905050506123bb565b604051808215151515815260200191505060405180910390f35b611219600480360360208110156111ed57600080fd5b81019080803573ffffffffffffffffffffffffffffffffffffffff16906020019092919050505061244f565b005b600060016000837bffffffffffffffffffffffffffffffffffffffffffffffffffffffff19167bffffffffffffffffffffffffffffffffffffffffffffffffffffffff1916815260200190815260200160002060009054906101000a900460ff169050919050565b6060600f8054600181600116156101000203166002900480601f01602080910402602001604051908101604052809291908181526020018280546001816001161561010002031660029004801561131b5780601f106112f05761010080835404028352916020019161131b565b820191906000526020600020905b8154815290600101906020018083116112fe57829003601f168201915b5050505050905090565b60006113308261246c565b61133957600080fd5b6003600083815260200190815260200160002060009054906101000a900473ffffffffffffffffffffffffffffffffffffffff169050919050565b600061137f826119e5565b90508073ffffffffffffffffffffffffffffffffffffffff168373ffffffffffffffffffffffffffffffffffffffff1614156113ba57600080fd5b8073ffffffffffffffffffffffffffffffffffffffff163373ffffffffffffffffffffffffffffffffffffffff1614806113fa57506113f981336123bb565b5b61140357600080fd5b826003600084815260200190815260200160002060006101000a81548173ffffffffffffffffffffffffffffffffffffffff021916908373ffffffffffffffffffffffffffffffffffffffff160217905550818373ffffffffffffffffffffffffffffffffffffffff168273ffffffffffffffffffffffffffffffffffffffff167f8c5be1e5ebec7d5bd14f71427d1e84f3dd0314c0f7b2291e5b200ac8c7c3b92560405160405180910390a4505050565b6000600880549050905090565b6114cc33826124de565b6114d557600080fd5b6114e0838383612573565b505050565b611524828260006040519080825280601f01601f19166020018201604052801561151e5781602001600182028038833980820191505090505b506118b3565b5050565b600061153383611a61565b821061153e57600080fd5b600660008473ffffffffffffffffffffffffffffffffffffffff1673ffffffffffffffffffffffffffffffffffffffff168152602001908152602001600020828154811061158857fe5b9060005260206000200154905092915050565b601660009054906101000a900473ffffffffffffffffffffffffffffffffffffffff1673ffffffffffffffffffffffffffffffffffffffff1663fe01ff628a8a8a8a8a8a8a8a8a6040518a63ffffffff1660e01b8152600401808a600260200280838360005b8381101561161c578082015181840152602081019050611601565b5050505090500189600260200280838360005b8381101561164a57808201518184015260208101905061162f565b505050509050018860026000925b8184101561169e5782846020020151600260200280838360005b8381101561168d578082015181840152602081019050611672565b505050509050019260010192611658565b9250505087600260200280838360005b838110156116c95780820151818401526020810190506116ae565b5050505090500186600260200280838360005b838110156116f75780820151818401526020810190506116dc565b5050505090500185600260200280838360005b8381101561172557808201518184015260208101905061170a565b5050505090500184600260200280838360005b83811015611753578082015181840152602081019050611738565b5050505090500183600260200280838360005b83811015611781578082015181840152602081019050611766565b5050505090500182600260200280838360005b838110156117af578082015181840152602081019050611794565b505050509050019950505050505050505050602060405180830381600087803b1580156117db57600080fd5b505af11580156117ef573d6000803e3d6000fd5b505050506040513d602081101561180557600080fd5b8101908080519060200190929190505050611888576040517f08c379a00000000000000000000000000000000000000000000000000000000081526004018080602001828103825260128152602001807f496e636f727265637420736f6c7574696f6e000000000000000000000000000081525060200191505060405180910390fd5b61189b8b8b8b8b8b8b8b8b8b8b8b611aea565b6118a58b8b611961565b505050505050505050505050565b505050565b6118c0611f7a565b6118c957600080fd5b600060149054906101000a900460ff166118e257600080fd5b60008060146101000a81548160ff0219169083151502179055507f5db9ee0a495bf2e6ff9c91a7834c1ba4fdd244a5e8aa4e537bd38aeae4b073aa33604051808273ffffffffffffffffffffffffffffffffffffffff1673ffffffffffffffffffffffffffffffffffffffff16815260200191505060405180910390a1565b600061196b611f7a565b61197457600080fd5b61197e8383612597565b611987826125b8565b6001905092915050565b6119ac838383604051806020016040528060008152506121ad565b505050565b60006119bb6114b5565b82106119c657600080fd5b600882815481106119d357fe5b90600052602060002001549050919050565b6000806002600084815260200190815260200160002060009054906101000a900473ffffffffffffffffffffffffffffffffffffffff169050600073ffffffffffffffffffffffffffffffffffffffff168173ffffffffffffffffffffffffffffffffffffffff161415611a5857600080fd5b80915050919050565b60008073ffffffffffffffffffffffffffffffffffffffff168273ffffffffffffffffffffffffffffffffffffffff161415611a9c57600080fd5b611ae3600460008473ffffffffffffffffffffffffffffffffffffffff1673ffffffffffffffffffffffffffffffffffffffff1681526020019081526020016000206126a0565b9050919050565b6000898989898989898989604051602001808a600260200280838360005b83811015611b23578082015181840152602081019050611b08565b5050505090500189600260200280838360005b83811015611b51578082015181840152602081019050611b36565b505050509050018860026000925b81841015611ba55782846020020151600260200280838360005b83811015611b94578082015181840152602081019050611b79565b505050509050019260010192611b5f565b9250505087600260200280838360005b83811015611bd0578082015181840152602081019050611bb5565b5050505090500186600260200280838360005b83811015611bfe578082015181840152602081019050611be3565b5050505090500185600260200280838360005b83811015611c2c578082015181840152602081019050611c11565b5050505090500184600260200280838360005b83811015611c5a578082015181840152602081019050611c3f565b5050505090500183600260200280838360005b83811015611c88578082015181840152602081019050611c6d565b5050505090500182600260200280838360005b83811015611cb6578082015181840152602081019050611c9b565b505050509050019950505050505050505050604051602081830303815290604052805190602001209050611ce98161233c565b611d3e576040517f08c379a00000000000000000000000000000000000000000000000000000000081526004018080602001828103825260228152602001806136ca6022913960400191505060405180910390fd5b611d466135c8565b60405180604001604052808d81526020018e73ffffffffffffffffffffffffffffffffffffffff16815250905080601860008481526020019081526020016000206000820151816000015560208201518160010160006101000a81548173ffffffffffffffffffffffffffffffffffffffff021916908373ffffffffffffffffffffffffffffffffffffffff160217905550905050601781908060018154018082558091505090600182039060005260206000209060020201600090919290919091506000820151816000015560208201518160010160006101000a81548173ffffffffffffffffffffffffffffffffffffffff021916908373ffffffffffffffffffffffffffffffffffffffff1602179055505050507fe9670965671257fe1303dd6edc2c949e84c4103d01e2a2c58658b7cd17354dbc8d604051808273ffffffffffffffffffffffffffffffffffffffff1673ffffffffffffffffffffffffffffffffffffffff16815260200191505060405180910390a150505050505050505050505050565b611ed7611f7a565b611ee057600080fd5b600060149054906101000a900460ff1615611efa57600080fd5b6001600060146101000a81548160ff0219169083151502179055507f62e78cea01bee320cd4e420270b5ea74000d11b0c9f74754ebdbfc544b05a25833604051808273ffffffffffffffffffffffffffffffffffffffff1673ffffffffffffffffffffffffffffffffffffffff16815260200191505060405180910390a1565b60008060009054906101000a900473ffffffffffffffffffffffffffffffffffffffff1673ffffffffffffffffffffffffffffffffffffffff163373ffffffffffffffffffffffffffffffffffffffff1614905090565b606060108054600181600116156101000203166002900480601f0160208091040260200160405190810160405280929190818152602001828054600181600116156101000203166002900480156120695780601f1061203e57610100808354040283529160200191612069565b820191906000526020600020905b81548152906001019060200180831161204c57829003601f168201915b5050505050905090565b3373ffffffffffffffffffffffffffffffffffffffff168273ffffffffffffffffffffffffffffffffffffffff1614156120ac57600080fd5b80600560003373ffffffffffffffffffffffffffffffffffffffff1673ffffffffffffffffffffffffffffffffffffffff16815260200190815260200160002060008473ffffffffffffffffffffffffffffffffffffffff1673ffffffffffffffffffffffffffffffffffffffff16815260200190815260200160002060006101000a81548160ff0219169083151502179055508173ffffffffffffffffffffffffffffffffffffffff163373ffffffffffffffffffffffffffffffffffffffff167f17307eab39ab6107e8899845ad3d59bd9653f200f220920489ca2b5937696c3183604051808215151515815260200191505060405180910390a35050565b6121b88484846114c2565b6121c4848484846126ae565b6121cd57600080fd5b50505050565b60606121de8261246c565b6121e757600080fd5b601260008381526020019081526020016000208054600181600116156101000203166002900480601f01602080910402602001604051908101604052809291908181526020018280546001816001161561010002031660029004801561228e5780601f106122635761010080835404028352916020019161228e565b820191906000526020600020905b81548152906001019060200180831161227157829003601f168201915b50505050509050919050565b606060118054600181600116156101000203166002900480601f0160208091040260200160405190810160405280929190818152602001828054600181600116156101000203166002900480156123325780601f1061230757610100808354040283529160200191612332565b820191906000526020600020905b81548152906001019060200180831161231557829003601f168201915b5050505050905090565b60008060019050600073ffffffffffffffffffffffffffffffffffffffff166018600085815260200190815260200160002060010160009054906101000a900473ffffffffffffffffffffffffffffffffffffffff1673ffffffffffffffffffffffffffffffffffffffff16146123b257600090505b80915050919050565b6000600560008473ffffffffffffffffffffffffffffffffffffffff1673ffffffffffffffffffffffffffffffffffffffff16815260200190815260200160002060008373ffffffffffffffffffffffffffffffffffffffff1673ffffffffffffffffffffffffffffffffffffffff16815260200190815260200160002060009054906101000a900460ff16905092915050565b612457611f7a565b61246057600080fd5b61246981612897565b50565b6000806002600084815260200190815260200160002060009054906101000a900473ffffffffffffffffffffffffffffffffffffffff169050600073ffffffffffffffffffffffffffffffffffffffff168173ffffffffffffffffffffffffffffffffffffffff161415915050919050565b6000806124ea836119e5565b90508073ffffffffffffffffffffffffffffffffffffffff168473ffffffffffffffffffffffffffffffffffffffff16148061255957508373ffffffffffffffffffffffffffffffffffffffff1661254184611325565b73ffffffffffffffffffffffffffffffffffffffff16145b8061256a575061256981856123bb565b5b91505092915050565b61257e83838361298f565b6125888382612b52565b6125928282612cf0565b505050565b6125a18282612db7565b6125ab8282612cf0565b6125b481612efd565b5050565b6125c18161246c565b6125ca57600080fd5b61267660118054600181600116156101000203166002900480601f0160208091040260200160405190810160405280929190818152602001828054600181600116156101000203166002900480156126635780601f1061263857610100808354040283529160200191612663565b820191906000526020600020905b81548152906001019060200180831161264657829003601f168201915b505050505061267183612f49565b613076565b60126000838152602001908152602001600020908051906020019061269c9291906135f8565b5050565b600081600001549050919050565b60006126cf8473ffffffffffffffffffffffffffffffffffffffff166130ba565b6126dc576001905061288f565b60008473ffffffffffffffffffffffffffffffffffffffff1663150b7a02338887876040518563ffffffff1660e01b8152600401808573ffffffffffffffffffffffffffffffffffffffff1673ffffffffffffffffffffffffffffffffffffffff1681526020018473ffffffffffffffffffffffffffffffffffffffff1673ffffffffffffffffffffffffffffffffffffffff16815260200183815260200180602001828103825283818151815260200191508051906020019080838360005b838110156127b757808201518184015260208101905061279c565b50505050905090810190601f1680156127e45780820380516001836020036101000a031916815260200191505b5095505050505050602060405180830381600087803b15801561280657600080fd5b505af115801561281a573d6000803e3d6000fd5b505050506040513d602081101561283057600080fd5b8101908080519060200190929190505050905063150b7a0260e01b7bffffffffffffffffffffffffffffffffffffffffffffffffffffffff1916817bffffffffffffffffffffffffffffffffffffffffffffffffffffffff1916149150505b949350505050565b600073ffffffffffffffffffffffffffffffffffffffff168173ffffffffffffffffffffffffffffffffffffffff1614156128d157600080fd5b8073ffffffffffffffffffffffffffffffffffffffff166000809054906101000a900473ffffffffffffffffffffffffffffffffffffffff1673ffffffffffffffffffffffffffffffffffffffff167fa77b1597453f945cb89178ec89d7d37698b9f9b07adbbb854775e48131186d2560405160405180910390a3806000806101000a81548173ffffffffffffffffffffffffffffffffffffffff021916908373ffffffffffffffffffffffffffffffffffffffff16021790555050565b8273ffffffffffffffffffffffffffffffffffffffff166129af826119e5565b73ffffffffffffffffffffffffffffffffffffffff16146129cf57600080fd5b600073ffffffffffffffffffffffffffffffffffffffff168273ffffffffffffffffffffffffffffffffffffffff161415612a0957600080fd5b612a1281613105565b612a59600460008573ffffffffffffffffffffffffffffffffffffffff1673ffffffffffffffffffffffffffffffffffffffff1681526020019081526020016000206131c3565b612aa0600460008473ffffffffffffffffffffffffffffffffffffffff1673ffffffffffffffffffffffffffffffffffffffff1681526020019081526020016000206131e6565b816002600083815260200190815260200160002060006101000a81548173ffffffffffffffffffffffffffffffffffffffff021916908373ffffffffffffffffffffffffffffffffffffffff160217905550808273ffffffffffffffffffffffffffffffffffffffff168473ffffffffffffffffffffffffffffffffffffffff167fddf252ad1be2c89b69c2b068fc378daa952ba7f163c4a11628f55a4df523b3ef60405160405180910390a4505050565b6000612baa6001600660008673ffffffffffffffffffffffffffffffffffffffff1673ffffffffffffffffffffffffffffffffffffffff168152602001908152602001600020805490506131fc90919063ffffffff16565b9050600060076000848152602001908152602001600020549050818114612c97576000600660008673ffffffffffffffffffffffffffffffffffffffff1673ffffffffffffffffffffffffffffffffffffffff1681526020019081526020016000208381548110612c1757fe5b9060005260206000200154905080600660008773ffffffffffffffffffffffffffffffffffffffff1673ffffffffffffffffffffffffffffffffffffffff1681526020019081526020016000208381548110612c6f57fe5b9060005260206000200181905550816007600083815260200190815260200160002081905550505b600660008573ffffffffffffffffffffffffffffffffffffffff1673ffffffffffffffffffffffffffffffffffffffff168152602001908152602001600020805480919060019003612ce99190613678565b5050505050565b600660008373ffffffffffffffffffffffffffffffffffffffff1673ffffffffffffffffffffffffffffffffffffffff168152602001908152602001600020805490506007600083815260200190815260200160002081905550600660008373ffffffffffffffffffffffffffffffffffffffff1673ffffffffffffffffffffffffffffffffffffffff1681526020019081526020016000208190806001815401808255809150509060018203906000526020600020016000909192909190915055505050565b600073ffffffffffffffffffffffffffffffffffffffff168273ffffffffffffffffffffffffffffffffffffffff161415612df157600080fd5b612dfa8161246c565b15612e0457600080fd5b816002600083815260200190815260200160002060006101000a81548173ffffffffffffffffffffffffffffffffffffffff021916908373ffffffffffffffffffffffffffffffffffffffff160217905550612e9d600460008473ffffffffffffffffffffffffffffffffffffffff1673ffffffffffffffffffffffffffffffffffffffff1681526020019081526020016000206131e6565b808273ffffffffffffffffffffffffffffffffffffffff16600073ffffffffffffffffffffffffffffffffffffffff167fddf252ad1be2c89b69c2b068fc378daa952ba7f163c4a11628f55a4df523b3ef60405160405180910390a45050565b6008805490506009600083815260200190815260200160002081905550600881908060018154018082558091505090600182039060005260206000200160009091929091909150555050565b60606000821415612f91576040518060400160405280600181526020017f30000000000000000000000000000000000000000000000000000000000000008152509050613071565b600082905060005b60008214612fbb578080600101915050600a8281612fb357fe5b049150612f99565b6060816040519080825280601f01601f191660200182016040528015612ff05781602001600182028038833980820191505090505b50905060006001830390505b6000861461306957600a868161300e57fe5b0660300160f81b8282806001900393508151811061302857fe5b60200101907effffffffffffffffffffffffffffffffffffffffffffffffffffffffffffff1916908160001a905350600a868161306157fe5b049550612ffc565b819450505050505b919050565b60606130b28383604051806020016040528060008152506040518060200160405280600081525060405180602001604052806000815250613246565b905092915050565b60008060007fc5d2460186f7233c927e7db2dcc703c0e500b653ca82273b7bfad8045d85a47060001b9050833f91508082141580156130fc57506000801b8214155b92505050919050565b600073ffffffffffffffffffffffffffffffffffffffff166003600083815260200190815260200160002060009054906101000a900473ffffffffffffffffffffffffffffffffffffffff1673ffffffffffffffffffffffffffffffffffffffff16146131c05760006003600083815260200190815260200160002060006101000a81548173ffffffffffffffffffffffffffffffffffffffff021916908373ffffffffffffffffffffffffffffffffffffffff1602179055505b50565b6131db600182600001546131fc90919063ffffffff16565b816000018190555050565b6001816000016000828254019250508190555050565b600061323e83836040518060400160405280601e81526020017f536166654d6174683a207375627472616374696f6e206f766572666c6f770000815250613508565b905092915050565b6060808690506060869050606086905060608690506060869050606081518351855187518951010101016040519080825280601f01601f1916602001820160405280156132a25781602001600182028038833980820191505090505b509050606081905060008090506000809050600090505b8851811015613327578881815181106132ce57fe5b602001015160f81c60f81b8383806001019450815181106132eb57fe5b60200101907effffffffffffffffffffffffffffffffffffffffffffffffffffffffffffff1916908160001a90535080806001019150506132b9565b600090505b875181101561339a5787818151811061334157fe5b602001015160f81c60f81b83838060010194508151811061335e57fe5b60200101907effffffffffffffffffffffffffffffffffffffffffffffffffffffffffffff1916908160001a905350808060010191505061332c565b600090505b865181101561340d578681815181106133b457fe5b602001015160f81c60f81b8383806001019450815181106133d157fe5b60200101907effffffffffffffffffffffffffffffffffffffffffffffffffffffffffffff1916908160001a905350808060010191505061339f565b600090505b85518110156134805785818151811061342757fe5b602001015160f81c60f81b83838060010194508151811061344457fe5b60200101907effffffffffffffffffffffffffffffffffffffffffffffffffffffffffffff1916908160001a9053508080600101915050613412565b600090505b84518110156134f35784818151811061349a57fe5b602001015160f81c60f81b8383806001019450815181106134b757fe5b60200101907effffffffffffffffffffffffffffffffffffffffffffffffffffffffffffff1916908160001a9053508080600101915050613485565b82995050505050505050505095945050505050565b60008383111582906135b5576040517f08c379a00000000000000000000000000000000000000000000000000000000081526004018080602001828103825283818151815260200191508051906020019080838360005b8381101561357a57808201518184015260208101905061355f565b50505050905090810190601f1680156135a75780820380516001836020036101000a031916815260200191505b509250505060405180910390fd5b5060008385039050809150509392505050565b604051806040016040528060008152602001600073ffffffffffffffffffffffffffffffffffffffff1681525090565b828054600181600116156101000203166002900490600052602060002090601f016020900481019282601f1061363957805160ff1916838001178555613667565b82800160010185558215613667579182015b8281111561366657825182559160200191906001019061364b565b5b50905061367491906136a4565b5090565b81548183558181111561369f5781836000526020600020918201910161369e91906136a4565b5b505050565b6136c691905b808211156136c25760008160009055506001016136aa565b5090565b9056fe54686520676976656e20736f6c7574696f6e20616c7265616479206578697374732ea265627a7a7231582058cc18933733272baea8ef864da6e0ab5193038d3aa81d5635319dd54ffbd20364736f6c6343000510003268747470733a2f2f73332d75732d776573742d322e616d617a6f6e6177732e636f6d2f756461636974792d626c6f636b636861696e2f63617073746f6e652f",
  "source": "pragma solidity ^0.5.0;\n\n// TODO define a contract call to the zokrates generated solidity contract <Verifier> or <renamedVerifier>\nimport \"./Verifier.sol\";\nimport \"./ERC721Mintable.sol\";\n\n// TODO define another contract named SolnSquareVerifier that inherits from your ERC721Mintable class\ncontract SolnSquareVerifier is ERC721Mintable{\n\n\tVerifier verifier;\n\n\t//constructor\n\tconstructor(address _verifierContract) ERC721Mintable() public{\n        verifier = Verifier(_verifierContract);\n    }\n\n\t// TODO define a solutions struct that can hold an index & an address\n\tstruct Solution {\n    \tuint256 index;\n\t\taddress solAddress;\n\t}\n\n\t// TODO define an array of the above struct\n\tSolution[] solutions;\n\n\t// TODO define a mapping to store unique solutions submitted\n\tmapping(bytes32 => Solution) private solutionsSubmitted;\n\n\t// TODO Create an event to emit when a solution is added\n\tevent solutionAdded(address solAddress);\n\n\t// TODO Create a function to add the solutions to the array and emit the event\n\tfunction addSolution(address _solAddress, uint256 _index, uint[2] memory A, uint[2] memory A_p, uint[2][2] memory B, uint[2] memory B_p, uint[2] memory C, uint[2] memory C_p, uint[2] memory H, uint[2] memory K, uint[2] memory input) public {\n\t\tbytes32 key = keccak256(abi.encodePacked(A, A_p, B, B_p, C, C_p, H, K, input));\n\t\trequire(isSolutionUnique(key), \"The given solution already exists.\");\n        Solution memory sol = Solution({index: _index, solAddress: _solAddress});\n        solutionsSubmitted[key] = sol;\n        solutions.push(sol);\n        emit solutionAdded(_solAddress);\n    }\n\n    function isSolutionUnique(bytes32 key) public view returns (bool){\n    \tbool isUnique = true;\n    \tif (solutionsSubmitted[key].solAddress != address(0)){\n    \t\tisUnique = false;\n    \t}\n\t\treturn isUnique;\t\n    }\n\n    // TODO Create a function to mint new NFT only after the solution has been verified\n\t//  - make sure the solution is unique (has not been used before)\n\t//  - make sure you handle metadata as well as tokenSuplly\n\tfunction mintNFT(address _to, uint256 _tokenId, uint[2] memory A, uint[2] memory A_p, uint[2][2] memory B, uint[2] memory B_p, uint[2] memory C, uint[2] memory C_p, uint[2] memory H, uint[2] memory K, uint[2] memory input) public{\n\t\trequire(verifier.verifyTx(A, A_p, B, B_p, C, C_p, H, K, input), \"Incorrect solution\");\n\t\taddSolution(_to, _tokenId, A, A_p, B, B_p, C, C_p, H, K, input);\n\t\tsuper.mint(_to, _tokenId);\n\t}\n\n}\n\n\n\n\n\n\n\n\n\n\n\n\n",
  "sourcePath": "C:\\Users\\jaime\\Desktop\\blockchain\\05-capstone\\Capstone-v1rikko215\\eth-contracts\\contracts\\SolnSquareVerifier.sol",
  "compiler": {
    "name": "solc",
    "version": "0.5.16+commit.9c3226ce.Emscripten.clang"
  },
  "schemaVersion": "3.4.3",
  "updatedAt": "2022-01-02T12:54:16.006Z",
  "networkType": "ethereum",
  "devdoc": {
    "methods": {
      "isApprovedForAll(address,address)": {
        "details": "Tells whether an operator is approved by a given owner",
        "params": {
          "operator": "operator address which you want to query the approval of",
          "owner": "owner address which you want to query the approval of"
        },
        "return": "bool whether the given operator is approved by the given owner"
      },
      "setApprovalForAll(address,bool)": {
        "details": "Sets or unsets the approval of a given operator An operator is allowed to transfer all tokens of the sender on their behalf",
        "params": {
          "approved": "representing the status of the approval to be set",
          "to": "operator address to set the approval"
        }
      },
      "supportsInterface(bytes4)": {
        "details": "implement supportsInterface(bytes4) using a lookup table"
      },
      "tokenByIndex(uint256)": {
        "details": "Gets the token ID at a given index of all the tokens in this contract Reverts if the index is greater or equal to the total number of tokens",
        "params": {
          "index": "uint256 representing the index to be accessed of the tokens list"
        },
        "return": "uint256 token ID at the given index of the tokens list"
      },
      "tokenOfOwnerByIndex(address,uint256)": {
        "details": "Gets the token ID at a given index of the tokens list of the requested owner",
        "params": {
          "index": "uint256 representing the index to be accessed of the requested tokens list",
          "owner": "address owning the tokens list to be accessed"
        },
        "return": "uint256 token ID at the given index of the tokens list owned by the requested address"
      },
      "totalSupply()": {
        "details": "Gets the total amount of tokens stored by the contract",
        "return": "uint256 representing the total amount of tokens"
      }
    }
  },
  "userdoc": {
    "methods": {}
  }
}